{
  "_format": "hh-sol-artifact-1",
  "contractName": "CrowdFunding",
  "sourceName": "contracts/CrowdFunding.sol",
  "abi": [
    {
      "inputs": [
        {
          "internalType": "address",
          "name": "_owner",
          "type": "address"
        },
        {
          "internalType": "string",
          "name": "_title",
          "type": "string"
        },
        {
          "internalType": "string",
          "name": "_description",
          "type": "string"
        },
        {
          "internalType": "uint256",
          "name": "_target",
          "type": "uint256"
        },
        {
          "internalType": "uint256",
          "name": "_deadline",
          "type": "uint256"
        }
      ],
      "name": "createCampaign",
      "outputs": [
        {
          "internalType": "uint256",
          "name": "",
          "type": "uint256"
        }
      ],
      "stateMutability": "nonpayable",
      "type": "function"
    },
    {
      "inputs": [
        {
          "internalType": "uint256",
          "name": "_id",
          "type": "uint256"
        }
      ],
      "name": "donateToCampaign",
      "outputs": [],
      "stateMutability": "payable",
      "type": "function"
    },
    {
      "inputs": [],
      "name": "getCampaigns",
      "outputs": [
        {
          "components": [
            {
              "internalType": "address",
              "name": "owner",
              "type": "address"
            },
            {
              "internalType": "string",
              "name": "title",
              "type": "string"
            },
            {
              "internalType": "string",
              "name": "description",
              "type": "string"
            },
            {
              "internalType": "uint256",
              "name": "target",
              "type": "uint256"
            },
            {
              "internalType": "uint256",
              "name": "deadline",
              "type": "uint256"
            },
            {
              "internalType": "uint256",
              "name": "amountCollected",
              "type": "uint256"
            },
            {
              "internalType": "address[]",
              "name": "donators",
              "type": "address[]"
            },
            {
              "internalType": "uint256[]",
              "name": "donations",
              "type": "uint256[]"
            }
          ],
          "internalType": "struct CrowdFunding.Campaign[]",
          "name": "",
          "type": "tuple[]"
        }
      ],
      "stateMutability": "view",
      "type": "function"
    },
    {
      "inputs": [
        {
          "internalType": "uint256",
          "name": "_id",
          "type": "uint256"
        }
      ],
      "name": "getDonators",
      "outputs": [
        {
          "internalType": "address[]",
          "name": "",
          "type": "address[]"
        },
        {
          "internalType": "uint256[]",
          "name": "",
          "type": "uint256[]"
        }
      ],
      "stateMutability": "view",
      "type": "function"
    },
    {
      "inputs": [
        {
          "internalType": "uint256",
          "name": "",
          "type": "uint256"
        }
      ],
      "name": "s_campaigns",
      "outputs": [
        {
          "internalType": "address",
          "name": "owner",
          "type": "address"
        },
        {
          "internalType": "string",
          "name": "title",
          "type": "string"
        },
        {
          "internalType": "string",
          "name": "description",
          "type": "string"
        },
        {
          "internalType": "uint256",
          "name": "target",
          "type": "uint256"
        },
        {
          "internalType": "uint256",
          "name": "deadline",
          "type": "uint256"
        },
        {
          "internalType": "uint256",
          "name": "amountCollected",
          "type": "uint256"
        }
      ],
      "stateMutability": "view",
      "type": "function"
    },
    {
      "inputs": [],
      "name": "s_numberOfCampaigns",
      "outputs": [
        {
          "internalType": "uint256",
          "name": "",
          "type": "uint256"
        }
      ],
      "stateMutability": "view",
      "type": "function"
    }
  ],
  "bytecode": "0x6080604052600060015534801561001557600080fd5b50611794806100256000396000f3fe6080604052600436106100555760003560e01c8063075843c31461005a5780630fa91fa91461009757806342a4fda8146100d5578063a6b03633146100f1578063bdaa00211461011c578063f487a65c1461015e575b600080fd5b34801561006657600080fd5b50610081600480360381019061007c9190610c0f565b610189565b60405161008e9190610cd1565b60405180910390f35b3480156100a357600080fd5b506100be60048036038101906100b99190610cec565b61029d565b6040516100cc929190610e95565b60405180910390f35b6100ef60048036038101906100ea9190610cec565b6103ad565b005b3480156100fd57600080fd5b50610106610510565b60405161011391906111b0565b60405180910390f35b34801561012857600080fd5b50610143600480360381019061013e9190610cec565b610854565b6040516101559695949392919061122b565b60405180910390f35b34801561016a57600080fd5b506101736109c0565b6040516101809190610cd1565b60405180910390f35b60008060008060015481526020019081526020016000209050428160040154106101e8576040517f08c379a00000000000000000000000000000000000000000000000000000000081526004016101df9061130c565b60405180910390fd5b868160000160006101000a81548173ffffffffffffffffffffffffffffffffffffffff021916908373ffffffffffffffffffffffffffffffffffffffff1602179055508581600101908161023c9190611538565b508481600201908161024e9190611538565b50828160040181905550838160030181905550600081600501819055506001600081548092919061027e90611639565b9190505550600180546102919190611681565b91505095945050505050565b6060806000808481526020019081526020016000206006016000808581526020019081526020016000206007018180548060200260200160405190810160405280929190818152602001828054801561034b57602002820191906000526020600020905b8160009054906101000a900473ffffffffffffffffffffffffffffffffffffffff1673ffffffffffffffffffffffffffffffffffffffff1681526020019060010190808311610301575b505050505091508080548060200260200160405190810160405280929190818152602001828054801561039d57602002820191906000526020600020905b815481526020019060010190808311610389575b5050505050905091509150915091565b60003490506000806000848152602001908152602001600020905080600601339080600181540180825580915050600190039060005260206000200160009091909190916101000a81548173ffffffffffffffffffffffffffffffffffffffff021916908373ffffffffffffffffffffffffffffffffffffffff1602179055508060070182908060018154018082558091505060019003906000526020600020016000909190919091505560008160000160009054906101000a900473ffffffffffffffffffffffffffffffffffffffff1673ffffffffffffffffffffffffffffffffffffffff16836040516104a2906116e6565b60006040518083038185875af1925050503d80600081146104df576040519150601f19603f3d011682016040523d82523d6000602084013e6104e4565b606091505b50509050801561050a578282600501600082825461050291906116fb565b925050819055505b50505050565b6060600060015467ffffffffffffffff8111156105305761052f610aae565b5b60405190808252806020026020018201604052801561056957816020015b6105566109c6565b81526020019060019003908161054e5790505b50905060005b60015481101561084c576000806000838152602001908152602001600020905080604051806101000160405290816000820160009054906101000a900473ffffffffffffffffffffffffffffffffffffffff1673ffffffffffffffffffffffffffffffffffffffff1673ffffffffffffffffffffffffffffffffffffffff1681526020016001820180546106029061135b565b80601f016020809104026020016040519081016040528092919081815260200182805461062e9061135b565b801561067b5780601f106106505761010080835404028352916020019161067b565b820191906000526020600020905b81548152906001019060200180831161065e57829003601f168201915b505050505081526020016002820180546106949061135b565b80601f01602080910402602001604051908101604052809291908181526020018280546106c09061135b565b801561070d5780601f106106e25761010080835404028352916020019161070d565b820191906000526020600020905b8154815290600101906020018083116106f057829003601f168201915b50505050508152602001600382015481526020016004820154815260200160058201548152602001600682018054806020026020016040519081016040528092919081815260200182805480156107b957602002820191906000526020600020905b8160009054906101000a900473ffffffffffffffffffffffffffffffffffffffff1673ffffffffffffffffffffffffffffffffffffffff168152602001906001019080831161076f575b505050505081526020016007820180548060200260200160405190810160405280929190818152602001828054801561081157602002820191906000526020600020905b8154815260200190600101908083116107fd575b50505050508152505083838151811061082d5761082c61172f565b5b602002602001018190525050808061084490611639565b91505061056f565b508091505090565b60006020528060005260406000206000915090508060000160009054906101000a900473ffffffffffffffffffffffffffffffffffffffff169080600101805461089d9061135b565b80601f01602080910402602001604051908101604052809291908181526020018280546108c99061135b565b80156109165780601f106108eb57610100808354040283529160200191610916565b820191906000526020600020905b8154815290600101906020018083116108f957829003601f168201915b50505050509080600201805461092b9061135b565b80601f01602080910402602001604051908101604052809291908181526020018280546109579061135b565b80156109a45780601f10610979576101008083540402835291602001916109a4565b820191906000526020600020905b81548152906001019060200180831161098757829003601f168201915b5050505050908060030154908060040154908060050154905086565b60015481565b604051806101000160405280600073ffffffffffffffffffffffffffffffffffffffff168152602001606081526020016060815260200160008152602001600081526020016000815260200160608152602001606081525090565b6000604051905090565b600080fd5b600080fd5b600073ffffffffffffffffffffffffffffffffffffffff82169050919050565b6000610a6082610a35565b9050919050565b610a7081610a55565b8114610a7b57600080fd5b50565b600081359050610a8d81610a67565b92915050565b600080fd5b600080fd5b6000601f19601f8301169050919050565b7f4e487b7100000000000000000000000000000000000000000000000000000000600052604160045260246000fd5b610ae682610a9d565b810181811067ffffffffffffffff82111715610b0557610b04610aae565b5b80604052505050565b6000610b18610a21565b9050610b248282610add565b919050565b600067ffffffffffffffff821115610b4457610b43610aae565b5b610b4d82610a9d565b9050602081019050919050565b82818337600083830152505050565b6000610b7c610b7784610b29565b610b0e565b905082815260208101848484011115610b9857610b97610a98565b5b610ba3848285610b5a565b509392505050565b600082601f830112610bc057610bbf610a93565b5b8135610bd0848260208601610b69565b91505092915050565b6000819050919050565b610bec81610bd9565b8114610bf757600080fd5b50565b600081359050610c0981610be3565b92915050565b600080600080600060a08688031215610c2b57610c2a610a2b565b5b6000610c3988828901610a7e565b955050602086013567ffffffffffffffff811115610c5a57610c59610a30565b5b610c6688828901610bab565b945050604086013567ffffffffffffffff811115610c8757610c86610a30565b5b610c9388828901610bab565b9350506060610ca488828901610bfa565b9250506080610cb588828901610bfa565b9150509295509295909350565b610ccb81610bd9565b82525050565b6000602082019050610ce66000830184610cc2565b92915050565b600060208284031215610d0257610d01610a2b565b5b6000610d1084828501610bfa565b91505092915050565b600081519050919050565b600082825260208201905092915050565b6000819050602082019050919050565b610d4e81610a55565b82525050565b6000610d608383610d45565b60208301905092915050565b6000602082019050919050565b6000610d8482610d19565b610d8e8185610d24565b9350610d9983610d35565b8060005b83811015610dca578151610db18882610d54565b9750610dbc83610d6c565b925050600181019050610d9d565b5085935050505092915050565b600081519050919050565b600082825260208201905092915050565b6000819050602082019050919050565b610e0c81610bd9565b82525050565b6000610e1e8383610e03565b60208301905092915050565b6000602082019050919050565b6000610e4282610dd7565b610e4c8185610de2565b9350610e5783610df3565b8060005b83811015610e88578151610e6f8882610e12565b9750610e7a83610e2a565b925050600181019050610e5b565b5085935050505092915050565b60006040820190508181036000830152610eaf8185610d79565b90508181036020830152610ec38184610e37565b90509392505050565b600081519050919050565b600082825260208201905092915050565b6000819050602082019050919050565b600081519050919050565b600082825260208201905092915050565b60005b83811015610f32578082015181840152602081019050610f17565b60008484015250505050565b6000610f4982610ef8565b610f538185610f03565b9350610f63818560208601610f14565b610f6c81610a9d565b840191505092915050565b600082825260208201905092915050565b6000610f9382610d19565b610f9d8185610f77565b9350610fa883610d35565b8060005b83811015610fd9578151610fc08882610d54565b9750610fcb83610d6c565b925050600181019050610fac565b5085935050505092915050565b600082825260208201905092915050565b600061100282610dd7565b61100c8185610fe6565b935061101783610df3565b8060005b8381101561104857815161102f8882610e12565b975061103a83610e2a565b92505060018101905061101b565b5085935050505092915050565b60006101008301600083015161106e6000860182610d45565b50602083015184820360208601526110868282610f3e565b915050604083015184820360408601526110a08282610f3e565b91505060608301516110b56060860182610e03565b5060808301516110c86080860182610e03565b5060a08301516110db60a0860182610e03565b5060c083015184820360c08601526110f38282610f88565b91505060e083015184820360e086015261110d8282610ff7565b9150508091505092915050565b60006111268383611055565b905092915050565b6000602082019050919050565b600061114682610ecc565b6111508185610ed7565b93508360208202850161116285610ee8565b8060005b8581101561119e578484038952815161117f858261111a565b945061118a8361112e565b925060208a01995050600181019050611166565b50829750879550505050505092915050565b600060208201905081810360008301526111ca818461113b565b905092915050565b6111db81610a55565b82525050565b600082825260208201905092915050565b60006111fd82610ef8565b61120781856111e1565b9350611217818560208601610f14565b61122081610a9d565b840191505092915050565b600060c08201905061124060008301896111d2565b818103602083015261125281886111f2565b9050818103604083015261126681876111f2565b90506112756060830186610cc2565b6112826080830185610cc2565b61128f60a0830184610cc2565b979650505050505050565b7f54686520646561646c696e652073686f756c642062652061206461746520696e60008201527f20746865206675747572652e0000000000000000000000000000000000000000602082015250565b60006112f6602c836111e1565b91506113018261129a565b604082019050919050565b60006020820190508181036000830152611325816112e9565b9050919050565b7f4e487b7100000000000000000000000000000000000000000000000000000000600052602260045260246000fd5b6000600282049050600182168061137357607f821691505b6020821081036113865761138561132c565b5b50919050565b60008190508160005260206000209050919050565b60006020601f8301049050919050565b600082821b905092915050565b6000600883026113ee7fffffffffffffffffffffffffffffffffffffffffffffffffffffffffffffffff826113b1565b6113f886836113b1565b95508019841693508086168417925050509392505050565b6000819050919050565b600061143561143061142b84610bd9565b611410565b610bd9565b9050919050565b6000819050919050565b61144f8361141a565b61146361145b8261143c565b8484546113be565b825550505050565b600090565b61147861146b565b611483818484611446565b505050565b5b818110156114a75761149c600082611470565b600181019050611489565b5050565b601f8211156114ec576114bd8161138c565b6114c6846113a1565b810160208510156114d5578190505b6114e96114e1856113a1565b830182611488565b50505b505050565b600082821c905092915050565b600061150f600019846008026114f1565b1980831691505092915050565b600061152883836114fe565b9150826002028217905092915050565b61154182610ef8565b67ffffffffffffffff81111561155a57611559610aae565b5b611564825461135b565b61156f8282856114ab565b600060209050601f8311600181146115a25760008415611590578287015190505b61159a858261151c565b865550611602565b601f1984166115b08661138c565b60005b828110156115d8578489015182556001820191506020850194506020810190506115b3565b868310156115f557848901516115f1601f8916826114fe565b8355505b6001600288020188555050505b505050505050565b7f4e487b7100000000000000000000000000000000000000000000000000000000600052601160045260246000fd5b600061164482610bd9565b91507fffffffffffffffffffffffffffffffffffffffffffffffffffffffffffffffff82036116765761167561160a565b5b600182019050919050565b600061168c82610bd9565b915061169783610bd9565b92508282039050818111156116af576116ae61160a565b5b92915050565b600081905092915050565b50565b60006116d06000836116b5565b91506116db826116c0565b600082019050919050565b60006116f1826116c3565b9150819050919050565b600061170682610bd9565b915061171183610bd9565b92508282019050808211156117295761172861160a565b5b92915050565b7f4e487b7100000000000000000000000000000000000000000000000000000000600052603260045260246000fdfea2646970667358221220861d0bd261973dd7bc41fb8fbfa8856d350bfc1014f891c566c2f90bd1f45d7964736f6c63430008120033",
  "linkReferences": {},
  "deployedLinkReferences": {}
}